{
  "contractName": "eSign",
  "abi": [
    {
      "inputs": [
        {
          "internalType": "bytes",
          "name": "",
          "type": "bytes"
        }
      ],
      "name": "DataTtd",
      "outputs": [
        {
          "internalType": "string",
          "name": "perihal",
          "type": "string"
        },
        {
          "internalType": "string",
          "name": "CIDTtd",
          "type": "string"
        },
        {
          "internalType": "uint256",
          "name": "timestamp",
          "type": "uint256"
        },
        {
          "internalType": "address",
          "name": "addr",
          "type": "address"
        },
        {
          "internalType": "string",
          "name": "CIDTtdQr",
          "type": "string"
        }
      ],
      "stateMutability": "view",
      "type": "function",
      "constant": true
    },
    {
      "inputs": [
        {
          "internalType": "address",
          "name": "",
          "type": "address"
        },
        {
          "internalType": "uint256",
          "name": "",
          "type": "uint256"
        }
      ],
      "name": "riwayat",
      "outputs": [
        {
          "internalType": "bytes",
          "name": "",
          "type": "bytes"
        }
      ],
      "stateMutability": "view",
      "type": "function",
      "constant": true
    },
    {
      "inputs": [
        {
          "internalType": "address",
          "name": "",
          "type": "address"
        }
      ],
      "name": "ttd",
      "outputs": [
        {
          "internalType": "string",
          "name": "",
          "type": "string"
        }
      ],
      "stateMutability": "view",
      "type": "function",
      "constant": true
    },
    {
      "inputs": [
        {
          "internalType": "bytes",
          "name": "sign",
          "type": "bytes"
        },
        {
          "internalType": "string",
          "name": "perihal",
          "type": "string"
        },
        {
          "internalType": "string",
          "name": "cidTtd",
          "type": "string"
        },
        {
          "internalType": "uint256",
          "name": "timestamp",
          "type": "uint256"
        },
        {
          "internalType": "address",
          "name": "addr",
          "type": "address"
        },
        {
          "internalType": "string",
          "name": "cidTtdQr",
          "type": "string"
        }
      ],
      "name": "setDataTtd",
      "outputs": [],
      "stateMutability": "nonpayable",
      "type": "function"
    },
    {
      "inputs": [
        {
          "internalType": "bytes",
          "name": "sign",
          "type": "bytes"
        }
      ],
      "name": "getDataTtd",
      "outputs": [
        {
          "internalType": "string",
          "name": "",
          "type": "string"
        },
        {
          "internalType": "string",
          "name": "",
          "type": "string"
        },
        {
          "internalType": "uint256",
          "name": "",
          "type": "uint256"
        },
        {
          "internalType": "address",
          "name": "",
          "type": "address"
        },
        {
          "internalType": "string",
          "name": "",
          "type": "string"
        }
      ],
      "stateMutability": "view",
      "type": "function",
      "constant": true
    },
    {
      "inputs": [
        {
          "internalType": "address",
          "name": "_addr",
          "type": "address"
        },
        {
          "internalType": "bytes",
          "name": "sign",
          "type": "bytes"
        }
      ],
      "name": "setRiwayat",
      "outputs": [],
      "stateMutability": "nonpayable",
      "type": "function"
    },
    {
      "inputs": [
        {
          "internalType": "address",
          "name": "_addr",
          "type": "address"
        }
      ],
      "name": "getRiwayat",
      "outputs": [
        {
          "internalType": "bytes[]",
          "name": "",
          "type": "bytes[]"
        }
      ],
      "stateMutability": "view",
      "type": "function",
      "constant": true
    },
    {
      "inputs": [
        {
          "internalType": "address",
          "name": "_addr",
          "type": "address"
        },
        {
          "internalType": "string",
          "name": "CID",
          "type": "string"
        }
      ],
      "name": "setTtd",
      "outputs": [],
      "stateMutability": "nonpayable",
      "type": "function"
    },
    {
      "inputs": [
        {
          "internalType": "address",
          "name": "_addr",
          "type": "address"
        }
      ],
      "name": "getTtd",
      "outputs": [
        {
          "internalType": "string",
          "name": "",
          "type": "string"
        }
      ],
      "stateMutability": "view",
      "type": "function",
      "constant": true
    }
  ],
  "bytecode": "0x608060405234801561001057600080fd5b5061179a806100206000396000f3fe608060405234801561001057600080fd5b50600436106100935760003560e01c80638006235b116100665780638006235b1461015c578063a68ccb0614610178578063a845552514610194578063c1a7562f146101b0578063e9c5dea1146101e457610093565b806310a9b2111461009857806319ead225146100c85780634a5325ba146100f85780635a17bd0814610128575b600080fd5b6100b260048036038101906100ad9190610bb2565b610214565b6040516100bf9190610c6f565b60405180910390f35b6100e260048036038101906100dd9190610cc7565b6102e4565b6040516100ef9190610d5c565b60405180910390f35b610112600480360381019061010d9190610bb2565b61039d565b60405161011f9190610c6f565b60405180910390f35b610142600480360381019061013d9190610eb3565b61043d565b604051610153959493929190610f1a565b60405180910390f35b61017660048036038101906101719190610f82565b610641565b005b610192600480360381019061018d919061107f565b6106b7565b005b6101ae60048036038101906101a9919061117c565b6107c0565b005b6101ca60048036038101906101c59190610eb3565b610810565b6040516101db959493929190610f1a565b60405180910390f35b6101fe60048036038101906101f99190610bb2565b610a28565b60405161020b91906112e4565b60405180910390f35b60606000808373ffffffffffffffffffffffffffffffffffffffff1673ffffffffffffffffffffffffffffffffffffffff168152602001908152602001600020805461025f90611335565b80601f016020809104026020016040519081016040528092919081815260200182805461028b90611335565b80156102d85780601f106102ad576101008083540402835291602001916102d8565b820191906000526020600020905b8154815290600101906020018083116102bb57829003601f168201915b50505050509050919050565b6002602052816000526040600020818154811061030057600080fd5b9060005260206000200160009150915050805461031c90611335565b80601f016020809104026020016040519081016040528092919081815260200182805461034890611335565b80156103955780601f1061036a57610100808354040283529160200191610395565b820191906000526020600020905b81548152906001019060200180831161037857829003601f168201915b505050505081565b600060205280600052604060002060009150905080546103bc90611335565b80601f01602080910402602001604051908101604052809291908181526020018280546103e890611335565b80156104355780601f1061040a57610100808354040283529160200191610435565b820191906000526020600020905b81548152906001019060200180831161041857829003601f168201915b505050505081565b60018180516020810182018051848252602083016020850120818352809550505050505060009150905080600001805461047690611335565b80601f01602080910402602001604051908101604052809291908181526020018280546104a290611335565b80156104ef5780601f106104c4576101008083540402835291602001916104ef565b820191906000526020600020905b8154815290600101906020018083116104d257829003601f168201915b50505050509080600101805461050490611335565b80601f016020809104026020016040519081016040528092919081815260200182805461053090611335565b801561057d5780601f106105525761010080835404028352916020019161057d565b820191906000526020600020905b81548152906001019060200180831161056057829003601f168201915b5050505050908060020154908060030160009054906101000a900473ffffffffffffffffffffffffffffffffffffffff16908060040180546105be90611335565b80601f01602080910402602001604051908101604052809291908181526020018280546105ea90611335565b80156106375780601f1061060c57610100808354040283529160200191610637565b820191906000526020600020905b81548152906001019060200180831161061a57829003601f168201915b5050505050905085565b600260008373ffffffffffffffffffffffffffffffffffffffff1673ffffffffffffffffffffffffffffffffffffffff168152602001908152602001600020819080600181540180825580915050600190039060005260206000200160009091909190915090816106b29190611512565b505050565b60006040518060a001604052808781526020018681526020018581526020018473ffffffffffffffffffffffffffffffffffffffff168152602001838152509050806001886040516107099190611620565b9081526020016040518091039020600082015181600001908161072c9190611692565b5060208201518160010190816107429190611692565b506040820151816002015560608201518160030160006101000a81548173ffffffffffffffffffffffffffffffffffffffff021916908373ffffffffffffffffffffffffffffffffffffffff16021790555060808201518160040190816107a99190611692565b509050506107b78388610641565b50505050505050565b806000808473ffffffffffffffffffffffffffffffffffffffff1673ffffffffffffffffffffffffffffffffffffffff168152602001908152602001600020908161080b9190611692565b505050565b6060806000806060600060018760405161082a9190611620565b90815260200160405180910390209050806000018160010182600201548360030160009054906101000a900473ffffffffffffffffffffffffffffffffffffffff168460040184805461087c90611335565b80601f01602080910402602001604051908101604052809291908181526020018280546108a890611335565b80156108f55780601f106108ca576101008083540402835291602001916108f5565b820191906000526020600020905b8154815290600101906020018083116108d857829003601f168201915b5050505050945083805461090890611335565b80601f016020809104026020016040519081016040528092919081815260200182805461093490611335565b80156109815780601f1061095657610100808354040283529160200191610981565b820191906000526020600020905b81548152906001019060200180831161096457829003601f168201915b5050505050935080805461099490611335565b80601f01602080910402602001604051908101604052809291908181526020018280546109c090611335565b8015610a0d5780601f106109e257610100808354040283529160200191610a0d565b820191906000526020600020905b8154815290600101906020018083116109f057829003601f168201915b50505050509050955095509550955095505091939590929450565b6060600260008373ffffffffffffffffffffffffffffffffffffffff1673ffffffffffffffffffffffffffffffffffffffff168152602001908152602001600020805480602002602001604051908101604052809291908181526020016000905b82821015610b35578382906000526020600020018054610aa890611335565b80601f0160208091040260200160405190810160405280929190818152602001828054610ad490611335565b8015610b215780601f10610af657610100808354040283529160200191610b21565b820191906000526020600020905b815481529060010190602001808311610b0457829003601f168201915b505050505081526020019060010190610a89565b505050509050919050565b6000604051905090565b600080fd5b600080fd5b600073ffffffffffffffffffffffffffffffffffffffff82169050919050565b6000610b7f82610b54565b9050919050565b610b8f81610b74565b8114610b9a57600080fd5b50565b600081359050610bac81610b86565b92915050565b600060208284031215610bc857610bc7610b4a565b5b6000610bd684828501610b9d565b91505092915050565b600081519050919050565b600082825260208201905092915050565b60005b83811015610c19578082015181840152602081019050610bfe565b60008484015250505050565b6000601f19601f8301169050919050565b6000610c4182610bdf565b610c4b8185610bea565b9350610c5b818560208601610bfb565b610c6481610c25565b840191505092915050565b60006020820190508181036000830152610c898184610c36565b905092915050565b6000819050919050565b610ca481610c91565b8114610caf57600080fd5b50565b600081359050610cc181610c9b565b92915050565b60008060408385031215610cde57610cdd610b4a565b5b6000610cec85828601610b9d565b9250506020610cfd85828601610cb2565b9150509250929050565b600081519050919050565b600082825260208201905092915050565b6000610d2e82610d07565b610d388185610d12565b9350610d48818560208601610bfb565b610d5181610c25565b840191505092915050565b60006020820190508181036000830152610d768184610d23565b905092915050565b600080fd5b600080fd5b7f4e487b7100000000000000000000000000000000000000000000000000000000600052604160045260246000fd5b610dc082610c25565b810181811067ffffffffffffffff82111715610ddf57610dde610d88565b5b80604052505050565b6000610df2610b40565b9050610dfe8282610db7565b919050565b600067ffffffffffffffff821115610e1e57610e1d610d88565b5b610e2782610c25565b9050602081019050919050565b82818337600083830152505050565b6000610e56610e5184610e03565b610de8565b905082815260208101848484011115610e7257610e71610d83565b5b610e7d848285610e34565b509392505050565b600082601f830112610e9a57610e99610d7e565b5b8135610eaa848260208601610e43565b91505092915050565b600060208284031215610ec957610ec8610b4a565b5b600082013567ffffffffffffffff811115610ee757610ee6610b4f565b5b610ef384828501610e85565b91505092915050565b610f0581610c91565b82525050565b610f1481610b74565b82525050565b600060a0820190508181036000830152610f348188610c36565b90508181036020830152610f488187610c36565b9050610f576040830186610efc565b610f646060830185610f0b565b8181036080830152610f768184610c36565b90509695505050505050565b60008060408385031215610f9957610f98610b4a565b5b6000610fa785828601610b9d565b925050602083013567ffffffffffffffff811115610fc857610fc7610b4f565b5b610fd485828601610e85565b9150509250929050565b600067ffffffffffffffff821115610ff957610ff8610d88565b5b61100282610c25565b9050602081019050919050565b600061102261101d84610fde565b610de8565b90508281526020810184848401111561103e5761103d610d83565b5b611049848285610e34565b509392505050565b600082601f83011261106657611065610d7e565b5b813561107684826020860161100f565b91505092915050565b60008060008060008060c0878903121561109c5761109b610b4a565b5b600087013567ffffffffffffffff8111156110ba576110b9610b4f565b5b6110c689828a01610e85565b965050602087013567ffffffffffffffff8111156110e7576110e6610b4f565b5b6110f389828a01611051565b955050604087013567ffffffffffffffff81111561111457611113610b4f565b5b61112089828a01611051565b945050606061113189828a01610cb2565b935050608061114289828a01610b9d565b92505060a087013567ffffffffffffffff81111561116357611162610b4f565b5b61116f89828a01611051565b9150509295509295509295565b6000806040838503121561119357611192610b4a565b5b60006111a185828601610b9d565b925050602083013567ffffffffffffffff8111156111c2576111c1610b4f565b5b6111ce85828601611051565b9150509250929050565b600081519050919050565b600082825260208201905092915050565b6000819050602082019050919050565b600082825260208201905092915050565b600061122082610d07565b61122a8185611204565b935061123a818560208601610bfb565b61124381610c25565b840191505092915050565b600061125a8383611215565b905092915050565b6000602082019050919050565b600061127a826111d8565b61128481856111e3565b935083602082028501611296856111f4565b8060005b858110156112d257848403895281516112b3858261124e565b94506112be83611262565b925060208a0199505060018101905061129a565b50829750879550505050505092915050565b600060208201905081810360008301526112fe818461126f565b905092915050565b7f4e487b7100000000000000000000000000000000000000000000000000000000600052602260045260246000fd5b6000600282049050600182168061134d57607f821691505b6020821081036113605761135f611306565b5b50919050565b60008190508160005260206000209050919050565b60006020601f8301049050919050565b600082821b905092915050565b6000600883026113c87fffffffffffffffffffffffffffffffffffffffffffffffffffffffffffffffff8261138b565b6113d2868361138b565b95508019841693508086168417925050509392505050565b6000819050919050565b600061140f61140a61140584610c91565b6113ea565b610c91565b9050919050565b6000819050919050565b611429836113f4565b61143d61143582611416565b848454611398565b825550505050565b600090565b611452611445565b61145d818484611420565b505050565b5b818110156114815761147660008261144a565b600181019050611463565b5050565b601f8211156114c65761149781611366565b6114a08461137b565b810160208510156114af578190505b6114c36114bb8561137b565b830182611462565b50505b505050565b600082821c905092915050565b60006114e9600019846008026114cb565b1980831691505092915050565b600061150283836114d8565b9150826002028217905092915050565b61151b82610d07565b67ffffffffffffffff81111561153457611533610d88565b5b61153e8254611335565b611549828285611485565b600060209050601f83116001811461157c576000841561156a578287015190505b61157485826114f6565b8655506115dc565b601f19841661158a86611366565b60005b828110156115b25784890151825560018201915060208501945060208101905061158d565b868310156115cf57848901516115cb601f8916826114d8565b8355505b6001600288020188555050505b505050505050565b600081905092915050565b60006115fa82610d07565b61160481856115e4565b9350611614818560208601610bfb565b80840191505092915050565b600061162c82846115ef565b915081905092915050565b60008190508160005260206000209050919050565b601f82111561168d5761165e81611637565b6116678461137b565b81016020851015611676578190505b61168a6116828561137b565b830182611462565b50505b505050565b61169b82610bdf565b67ffffffffffffffff8111156116b4576116b3610d88565b5b6116be8254611335565b6116c982828561164c565b600060209050601f8311600181146116fc57600084156116ea578287015190505b6116f485826114f6565b86555061175c565b601f19841661170a86611637565b60005b828110156117325784890151825560018201915060208501945060208101905061170d565b8683101561174f578489015161174b601f8916826114d8565b8355505b6001600288020188555050505b50505050505056fea2646970667358221220036786c217a2ee79b4a92501699b22fb64fc3c159496df7957b543f2672042f664736f6c63430008110033",
  "immutableReferences": {},
  "source": "// SPDX-License-Identifier: MIT\npragma solidity >=0.4.22 <0.9.0;\n\ncontract eSign {\n  mapping(address => string) public ttd;\n  mapping(bytes => kumpulanData) public DataTtd;\n  mapping(address => bytes[]) public riwayat;\n\n  struct kumpulanData {\n    string perihal;\n    string CIDTtd;\n    uint timestamp;\n    address addr;\n    string CIDTtdQr;\n  }\n\n  function setDataTtd(bytes memory sign, string memory perihal, string memory cidTtd, uint timestamp, address addr, string memory cidTtdQr) public {\n    kumpulanData memory data = kumpulanData(perihal, cidTtd, timestamp, addr, cidTtdQr);\n    DataTtd[sign] = data;\n    setRiwayat(addr, sign);\n  }\n\n  function getDataTtd(bytes memory sign) public view returns (string memory, string memory, uint, address, string memory){\n    kumpulanData storage data = DataTtd[sign];\n    return (data.perihal, data.CIDTtd, data.timestamp, data.addr, data.CIDTtdQr);\n  }\n\n  function setRiwayat(address _addr, bytes memory sign) public {\n    riwayat[_addr].push(sign);\n  }\n\n  function getRiwayat(address _addr) public view returns (bytes[] memory){\n    return riwayat[_addr];\n  }\n\n  function setTtd(address _addr, string memory CID) public {\n    ttd[_addr] = CID;\n  }\n\n  function getTtd(address _addr) public view returns (string memory) {\n    return ttd[_addr];\n  }\n}\n",
  "sourcePath": "D:\\Blockchain\\Tugas Akhir\\contracts\\eSign.sol",
  "compiler": {
    "name": "solc",
    "version": "0.8.17+commit.8df45f5f.Emscripten.clang"
  },
  "schemaVersion": "3.4.10",
  "updatedAt": "2023-04-29T07:54:09.758Z",
  "networkType": "ethereum",
  "devdoc": {
    "kind": "dev",
    "methods": {},
    "version": 1
  },
  "userdoc": {
    "kind": "user",
    "methods": {},
    "version": 1
  }
}