{
  "contractName": "eSign",
  "abi": [
    {
      "inputs": [
        {
          "internalType": "bytes",
          "name": "",
          "type": "bytes"
        }
      ],
      "name": "DataTtd",
      "outputs": [
        {
          "internalType": "string",
          "name": "perihal",
          "type": "string"
        },
        {
          "internalType": "string",
          "name": "CIDTtd",
          "type": "string"
        },
        {
          "internalType": "string",
          "name": "timestamp",
          "type": "string"
        },
        {
          "internalType": "address",
          "name": "addr",
          "type": "address"
        },
        {
          "internalType": "string",
          "name": "CIDTtdQr",
          "type": "string"
        }
      ],
      "stateMutability": "view",
      "type": "function",
      "constant": true
    },
    {
      "inputs": [
        {
          "internalType": "address",
          "name": "",
          "type": "address"
        },
        {
          "internalType": "uint256",
          "name": "",
          "type": "uint256"
        }
      ],
      "name": "riwayat",
      "outputs": [
        {
          "internalType": "string",
          "name": "timestamp",
          "type": "string"
        },
        {
          "internalType": "bytes",
          "name": "signature",
          "type": "bytes"
        },
        {
          "internalType": "string",
          "name": "perihal",
          "type": "string"
        }
      ],
      "stateMutability": "view",
      "type": "function",
      "constant": true
    },
    {
      "inputs": [
        {
          "internalType": "address",
          "name": "",
          "type": "address"
        }
      ],
      "name": "ttd",
      "outputs": [
        {
          "internalType": "string",
          "name": "",
          "type": "string"
        }
      ],
      "stateMutability": "view",
      "type": "function",
      "constant": true
    },
    {
      "inputs": [
        {
          "internalType": "bytes",
          "name": "sign",
          "type": "bytes"
        },
        {
          "internalType": "string",
          "name": "perihal",
          "type": "string"
        },
        {
          "internalType": "string",
          "name": "cidTtd",
          "type": "string"
        },
        {
          "internalType": "string",
          "name": "timestamp",
          "type": "string"
        },
        {
          "internalType": "address",
          "name": "addr",
          "type": "address"
        },
        {
          "internalType": "string",
          "name": "cidTtdQr",
          "type": "string"
        }
      ],
      "name": "setDataTtd",
      "outputs": [],
      "stateMutability": "nonpayable",
      "type": "function"
    },
    {
      "inputs": [
        {
          "internalType": "bytes",
          "name": "sign",
          "type": "bytes"
        }
      ],
      "name": "getDataTtd",
      "outputs": [
        {
          "internalType": "string",
          "name": "",
          "type": "string"
        },
        {
          "internalType": "string",
          "name": "",
          "type": "string"
        },
        {
          "internalType": "string",
          "name": "",
          "type": "string"
        },
        {
          "internalType": "address",
          "name": "",
          "type": "address"
        },
        {
          "internalType": "string",
          "name": "",
          "type": "string"
        }
      ],
      "stateMutability": "view",
      "type": "function",
      "constant": true
    },
    {
      "inputs": [
        {
          "internalType": "address",
          "name": "_addr",
          "type": "address"
        },
        {
          "internalType": "string",
          "name": "timestamp",
          "type": "string"
        },
        {
          "internalType": "bytes",
          "name": "sign",
          "type": "bytes"
        },
        {
          "internalType": "string",
          "name": "perihal",
          "type": "string"
        }
      ],
      "name": "setRiwayat",
      "outputs": [],
      "stateMutability": "nonpayable",
      "type": "function"
    },
    {
      "inputs": [
        {
          "internalType": "address",
          "name": "_addr",
          "type": "address"
        }
      ],
      "name": "getRiwayat",
      "outputs": [
        {
          "components": [
            {
              "internalType": "string",
              "name": "timestamp",
              "type": "string"
            },
            {
              "internalType": "bytes",
              "name": "signature",
              "type": "bytes"
            },
            {
              "internalType": "string",
              "name": "perihal",
              "type": "string"
            }
          ],
          "internalType": "struct eSign.kumpulanRiwayat[]",
          "name": "",
          "type": "tuple[]"
        }
      ],
      "stateMutability": "view",
      "type": "function",
      "constant": true
    },
    {
      "inputs": [
        {
          "internalType": "address",
          "name": "_addr",
          "type": "address"
        },
        {
          "internalType": "string",
          "name": "CID",
          "type": "string"
        }
      ],
      "name": "setTtd",
      "outputs": [],
      "stateMutability": "nonpayable",
      "type": "function"
    },
    {
      "inputs": [
        {
          "internalType": "address",
          "name": "_addr",
          "type": "address"
        }
      ],
      "name": "getTtd",
      "outputs": [
        {
          "internalType": "string",
          "name": "",
          "type": "string"
        }
      ],
      "stateMutability": "view",
      "type": "function",
      "constant": true
    },
    {
      "inputs": [
        {
          "internalType": "string",
          "name": "perihal",
          "type": "string"
        },
        {
          "internalType": "string",
          "name": "cid",
          "type": "string"
        },
        {
          "internalType": "uint256",
          "name": "timestamp",
          "type": "uint256"
        }
      ],
      "name": "getMessageHash",
      "outputs": [
        {
          "internalType": "bytes32",
          "name": "",
          "type": "bytes32"
        }
      ],
      "stateMutability": "pure",
      "type": "function",
      "constant": true
    },
    {
      "inputs": [
        {
          "internalType": "bytes32",
          "name": "_messageHash",
          "type": "bytes32"
        }
      ],
      "name": "getEthSignedMessageHash",
      "outputs": [
        {
          "internalType": "bytes32",
          "name": "",
          "type": "bytes32"
        }
      ],
      "stateMutability": "pure",
      "type": "function",
      "constant": true
    },
    {
      "inputs": [
        {
          "internalType": "address",
          "name": "_signer",
          "type": "address"
        },
        {
          "internalType": "string",
          "name": "perihal",
          "type": "string"
        },
        {
          "internalType": "string",
          "name": "cid",
          "type": "string"
        },
        {
          "internalType": "uint256",
          "name": "timestamp",
          "type": "uint256"
        },
        {
          "internalType": "bytes",
          "name": "signature",
          "type": "bytes"
        }
      ],
      "name": "verify",
      "outputs": [
        {
          "internalType": "bool",
          "name": "",
          "type": "bool"
        }
      ],
      "stateMutability": "pure",
      "type": "function",
      "constant": true
    },
    {
      "inputs": [
        {
          "internalType": "bytes32",
          "name": "_ethSignedMessageHash",
          "type": "bytes32"
        },
        {
          "internalType": "bytes",
          "name": "_signature",
          "type": "bytes"
        }
      ],
      "name": "recoverSigner",
      "outputs": [
        {
          "internalType": "address",
          "name": "",
          "type": "address"
        }
      ],
      "stateMutability": "pure",
      "type": "function",
      "constant": true
    },
    {
      "inputs": [
        {
          "internalType": "bytes",
          "name": "sig",
          "type": "bytes"
        }
      ],
      "name": "splitSignature",
      "outputs": [
        {
          "internalType": "bytes32",
          "name": "r",
          "type": "bytes32"
        },
        {
          "internalType": "bytes32",
          "name": "s",
          "type": "bytes32"
        },
        {
          "internalType": "uint8",
          "name": "v",
          "type": "uint8"
        }
      ],
      "stateMutability": "pure",
      "type": "function",
      "constant": true
    }
  ],
  "bytecode": "0x608060405234801561001057600080fd5b50612467806100206000396000f3fe608060405234801561001057600080fd5b50600436106100ea5760003560e01c8063a84555251161008c578063dc9ec7b711610066578063dc9ec7b7146102b3578063e9c5dea1146102e3578063eba98b5e14610313578063fa5408011461032f576100ea565b8063a845552514610233578063ac823ee31461024f578063c1a7562f1461027f576100ea565b80634a5325ba116100c85780634a5325ba1461016d5780635a17bd081461019d57806397aba7f9146101d1578063a7bb580314610201576100ea565b806310a9b211146100ef57806319ead2251461011f57806347a372ed14610151575b600080fd5b6101096004803603810190610104919061127d565b61035f565b604051610116919061133a565b60405180910390f35b61013960048036038101906101349190611392565b61042f565b60405161014893929190611427565b60405180910390f35b61016b60048036038101906101669190611649565b61060e565b005b6101876004803603810190610182919061127d565b610725565b604051610194919061133a565b60405180910390f35b6101b760048036038101906101b29190611762565b6107c5565b6040516101c89594939291906117ba565b60405180910390f35b6101eb60048036038101906101e6919061185f565b610a51565b6040516101f891906118bb565b60405180910390f35b61021b60048036038101906102169190611762565b610ac0565b60405161022a93929190611901565b60405180910390f35b61024d60048036038101906102489190611938565b610b28565b005b61026960048036038101906102649190611994565b610b78565b6040516102769190611a1f565b60405180910390f35b61029960048036038101906102949190611762565b610bae565b6040516102aa9594939291906117ba565b60405180910390f35b6102cd60048036038101906102c89190611a3a565b610e52565b6040516102da9190611b24565b60405180910390f35b6102fd60048036038101906102f8919061127d565b610eb4565b60405161030a9190611cf3565b60405180910390f35b61032d60048036038101906103289190611d15565b611108565b005b61034960048036038101906103449190611dd0565b6111db565b6040516103569190611a1f565b60405180910390f35b60606000808373ffffffffffffffffffffffffffffffffffffffff1673ffffffffffffffffffffffffffffffffffffffff16815260200190815260200160002080546103aa90611e2c565b80601f01602080910402602001604051908101604052809291908181526020018280546103d690611e2c565b80156104235780601f106103f857610100808354040283529160200191610423565b820191906000526020600020905b81548152906001019060200180831161040657829003601f168201915b50505050509050919050565b6002602052816000526040600020818154811061044b57600080fd5b90600052602060002090600302016000915091505080600001805461046f90611e2c565b80601f016020809104026020016040519081016040528092919081815260200182805461049b90611e2c565b80156104e85780601f106104bd576101008083540402835291602001916104e8565b820191906000526020600020905b8154815290600101906020018083116104cb57829003601f168201915b5050505050908060010180546104fd90611e2c565b80601f016020809104026020016040519081016040528092919081815260200182805461052990611e2c565b80156105765780601f1061054b57610100808354040283529160200191610576565b820191906000526020600020905b81548152906001019060200180831161055957829003601f168201915b50505050509080600201805461058b90611e2c565b80601f01602080910402602001604051908101604052809291908181526020018280546105b790611e2c565b80156106045780601f106105d957610100808354040283529160200191610604565b820191906000526020600020905b8154815290600101906020018083116105e757829003601f168201915b5050505050905083565b60006040518060a001604052808781526020018681526020018581526020018473ffffffffffffffffffffffffffffffffffffffff168152602001838152509050806001886040516106609190611e99565b90815260200160405180910390206000820151816000019081610683919061205c565b506020820151816001019081610699919061205c565b5060408201518160020190816106af919061205c565b5060608201518160030160006101000a81548173ffffffffffffffffffffffffffffffffffffffff021916908373ffffffffffffffffffffffffffffffffffffffff160217905550608082015181600401908161070c919061205c565b5090505061071c83858989611108565b50505050505050565b6000602052806000526040600020600091509050805461074490611e2c565b80601f016020809104026020016040519081016040528092919081815260200182805461077090611e2c565b80156107bd5780601f10610792576101008083540402835291602001916107bd565b820191906000526020600020905b8154815290600101906020018083116107a057829003601f168201915b505050505081565b6001818051602081018201805184825260208301602085012081835280955050505050506000915090508060000180546107fe90611e2c565b80601f016020809104026020016040519081016040528092919081815260200182805461082a90611e2c565b80156108775780601f1061084c57610100808354040283529160200191610877565b820191906000526020600020905b81548152906001019060200180831161085a57829003601f168201915b50505050509080600101805461088c90611e2c565b80601f01602080910402602001604051908101604052809291908181526020018280546108b890611e2c565b80156109055780601f106108da57610100808354040283529160200191610905565b820191906000526020600020905b8154815290600101906020018083116108e857829003601f168201915b50505050509080600201805461091a90611e2c565b80601f016020809104026020016040519081016040528092919081815260200182805461094690611e2c565b80156109935780601f1061096857610100808354040283529160200191610993565b820191906000526020600020905b81548152906001019060200180831161097657829003601f168201915b5050505050908060030160009054906101000a900473ffffffffffffffffffffffffffffffffffffffff16908060040180546109ce90611e2c565b80601f01602080910402602001604051908101604052809291908181526020018280546109fa90611e2c565b8015610a475780601f10610a1c57610100808354040283529160200191610a47565b820191906000526020600020905b815481529060010190602001808311610a2a57829003601f168201915b5050505050905085565b600080600080610a6085610ac0565b92509250925060018682858560405160008152602001604052604051610a89949392919061212e565b6020604051602081039080840390855afa158015610aab573d6000803e3d6000fd5b50505060206040510351935050505092915050565b60008060006041845114610b09576040517f08c379a0000000000000000000000000000000000000000000000000000000008152600401610b00906121bf565b60405180910390fd5b6020840151925060408401519150606084015160001a90509193909250565b806000808473ffffffffffffffffffffffffffffffffffffffff1673ffffffffffffffffffffffffffffffffffffffff1681526020019081526020016000209081610b73919061205c565b505050565b6000838383604051602001610b8f9392919061223c565b6040516020818303038152906040528051906020012090509392505050565b6060806060600060606000600187604051610bc99190611e99565b908152602001604051809103902090508060000181600101826002018360030160009054906101000a900473ffffffffffffffffffffffffffffffffffffffff1684600401848054610c1a90611e2c565b80601f0160208091040260200160405190810160405280929190818152602001828054610c4690611e2c565b8015610c935780601f10610c6857610100808354040283529160200191610c93565b820191906000526020600020905b815481529060010190602001808311610c7657829003601f168201915b50505050509450838054610ca690611e2c565b80601f0160208091040260200160405190810160405280929190818152602001828054610cd290611e2c565b8015610d1f5780601f10610cf457610100808354040283529160200191610d1f565b820191906000526020600020905b815481529060010190602001808311610d0257829003601f168201915b50505050509350828054610d3290611e2c565b80601f0160208091040260200160405190810160405280929190818152602001828054610d5e90611e2c565b8015610dab5780601f10610d8057610100808354040283529160200191610dab565b820191906000526020600020905b815481529060010190602001808311610d8e57829003601f168201915b50505050509250808054610dbe90611e2c565b80601f0160208091040260200160405190810160405280929190818152602001828054610dea90611e2c565b8015610e375780601f10610e0c57610100808354040283529160200191610e37565b820191906000526020600020905b815481529060010190602001808311610e1a57829003601f168201915b50505050509050955095509550955095505091939590929450565b600080610e60868686610b78565b90506000610e6d826111db565b90508773ffffffffffffffffffffffffffffffffffffffff16610e908286610a51565b73ffffffffffffffffffffffffffffffffffffffff16149250505095945050505050565b6060600260008373ffffffffffffffffffffffffffffffffffffffff1673ffffffffffffffffffffffffffffffffffffffff168152602001908152602001600020805480602002602001604051908101604052809291908181526020016000905b828210156110fd5783829060005260206000209060030201604051806060016040529081600082018054610f4890611e2c565b80601f0160208091040260200160405190810160405280929190818152602001828054610f7490611e2c565b8015610fc15780601f10610f9657610100808354040283529160200191610fc1565b820191906000526020600020905b815481529060010190602001808311610fa457829003601f168201915b50505050508152602001600182018054610fda90611e2c565b80601f016020809104026020016040519081016040528092919081815260200182805461100690611e2c565b80156110535780601f1061102857610100808354040283529160200191611053565b820191906000526020600020905b81548152906001019060200180831161103657829003601f168201915b5050505050815260200160028201805461106c90611e2c565b80601f016020809104026020016040519081016040528092919081815260200182805461109890611e2c565b80156110e55780601f106110ba576101008083540402835291602001916110e5565b820191906000526020600020905b8154815290600101906020018083116110c857829003601f168201915b50505050508152505081526020019060010190610f15565b505050509050919050565b60006040518060600160405280858152602001848152602001838152509050600260008673ffffffffffffffffffffffffffffffffffffffff1673ffffffffffffffffffffffffffffffffffffffff16815260200190815260200160002081908060018154018082558091505060019003906000526020600020906003020160009091909190915060008201518160000190816111a5919061205c565b5060208201518160010190816111bb91906122cc565b5060408201518160020190816111d1919061205c565b5050505050505050565b6000816040516020016111ee919061240b565b604051602081830303815290604052805190602001209050919050565b6000604051905090565b600080fd5b600080fd5b600073ffffffffffffffffffffffffffffffffffffffff82169050919050565b600061124a8261121f565b9050919050565b61125a8161123f565b811461126557600080fd5b50565b60008135905061127781611251565b92915050565b60006020828403121561129357611292611215565b5b60006112a184828501611268565b91505092915050565b600081519050919050565b600082825260208201905092915050565b60005b838110156112e45780820151818401526020810190506112c9565b60008484015250505050565b6000601f19601f8301169050919050565b600061130c826112aa565b61131681856112b5565b93506113268185602086016112c6565b61132f816112f0565b840191505092915050565b600060208201905081810360008301526113548184611301565b905092915050565b6000819050919050565b61136f8161135c565b811461137a57600080fd5b50565b60008135905061138c81611366565b92915050565b600080604083850312156113a9576113a8611215565b5b60006113b785828601611268565b92505060206113c88582860161137d565b9150509250929050565b600081519050919050565b600082825260208201905092915050565b60006113f9826113d2565b61140381856113dd565b93506114138185602086016112c6565b61141c816112f0565b840191505092915050565b600060608201905081810360008301526114418186611301565b9050818103602083015261145581856113ee565b905081810360408301526114698184611301565b9050949350505050565b600080fd5b600080fd5b7f4e487b7100000000000000000000000000000000000000000000000000000000600052604160045260246000fd5b6114b5826112f0565b810181811067ffffffffffffffff821117156114d4576114d361147d565b5b80604052505050565b60006114e761120b565b90506114f382826114ac565b919050565b600067ffffffffffffffff8211156115135761151261147d565b5b61151c826112f0565b9050602081019050919050565b82818337600083830152505050565b600061154b611546846114f8565b6114dd565b90508281526020810184848401111561156757611566611478565b5b611572848285611529565b509392505050565b600082601f83011261158f5761158e611473565b5b813561159f848260208601611538565b91505092915050565b600067ffffffffffffffff8211156115c3576115c261147d565b5b6115cc826112f0565b9050602081019050919050565b60006115ec6115e7846115a8565b6114dd565b90508281526020810184848401111561160857611607611478565b5b611613848285611529565b509392505050565b600082601f8301126116305761162f611473565b5b81356116408482602086016115d9565b91505092915050565b60008060008060008060c0878903121561166657611665611215565b5b600087013567ffffffffffffffff8111156116845761168361121a565b5b61169089828a0161157a565b965050602087013567ffffffffffffffff8111156116b1576116b061121a565b5b6116bd89828a0161161b565b955050604087013567ffffffffffffffff8111156116de576116dd61121a565b5b6116ea89828a0161161b565b945050606087013567ffffffffffffffff81111561170b5761170a61121a565b5b61171789828a0161161b565b935050608061172889828a01611268565b92505060a087013567ffffffffffffffff8111156117495761174861121a565b5b61175589828a0161161b565b9150509295509295509295565b60006020828403121561177857611777611215565b5b600082013567ffffffffffffffff8111156117965761179561121a565b5b6117a28482850161157a565b91505092915050565b6117b48161123f565b82525050565b600060a08201905081810360008301526117d48188611301565b905081810360208301526117e88187611301565b905081810360408301526117fc8186611301565b905061180b60608301856117ab565b818103608083015261181d8184611301565b90509695505050505050565b6000819050919050565b61183c81611829565b811461184757600080fd5b50565b60008135905061185981611833565b92915050565b6000806040838503121561187657611875611215565b5b60006118848582860161184a565b925050602083013567ffffffffffffffff8111156118a5576118a461121a565b5b6118b18582860161157a565b9150509250929050565b60006020820190506118d060008301846117ab565b92915050565b6118df81611829565b82525050565b600060ff82169050919050565b6118fb816118e5565b82525050565b600060608201905061191660008301866118d6565b61192360208301856118d6565b61193060408301846118f2565b949350505050565b6000806040838503121561194f5761194e611215565b5b600061195d85828601611268565b925050602083013567ffffffffffffffff81111561197e5761197d61121a565b5b61198a8582860161161b565b9150509250929050565b6000806000606084860312156119ad576119ac611215565b5b600084013567ffffffffffffffff8111156119cb576119ca61121a565b5b6119d78682870161161b565b935050602084013567ffffffffffffffff8111156119f8576119f761121a565b5b611a048682870161161b565b9250506040611a158682870161137d565b9150509250925092565b6000602082019050611a3460008301846118d6565b92915050565b600080600080600060a08688031215611a5657611a55611215565b5b6000611a6488828901611268565b955050602086013567ffffffffffffffff811115611a8557611a8461121a565b5b611a918882890161161b565b945050604086013567ffffffffffffffff811115611ab257611ab161121a565b5b611abe8882890161161b565b9350506060611acf8882890161137d565b925050608086013567ffffffffffffffff811115611af057611aef61121a565b5b611afc8882890161157a565b9150509295509295909350565b60008115159050919050565b611b1e81611b09565b82525050565b6000602082019050611b396000830184611b15565b92915050565b600081519050919050565b600082825260208201905092915050565b6000819050602082019050919050565b600082825260208201905092915050565b6000611b87826112aa565b611b918185611b6b565b9350611ba18185602086016112c6565b611baa816112f0565b840191505092915050565b600082825260208201905092915050565b6000611bd1826113d2565b611bdb8185611bb5565b9350611beb8185602086016112c6565b611bf4816112f0565b840191505092915050565b60006060830160008301518482036000860152611c1c8282611b7c565b91505060208301518482036020860152611c368282611bc6565b91505060408301518482036040860152611c508282611b7c565b9150508091505092915050565b6000611c698383611bff565b905092915050565b6000602082019050919050565b6000611c8982611b3f565b611c938185611b4a565b935083602082028501611ca585611b5b565b8060005b85811015611ce15784840389528151611cc28582611c5d565b9450611ccd83611c71565b925060208a01995050600181019050611ca9565b50829750879550505050505092915050565b60006020820190508181036000830152611d0d8184611c7e565b905092915050565b60008060008060808587031215611d2f57611d2e611215565b5b6000611d3d87828801611268565b945050602085013567ffffffffffffffff811115611d5e57611d5d61121a565b5b611d6a8782880161161b565b935050604085013567ffffffffffffffff811115611d8b57611d8a61121a565b5b611d978782880161157a565b925050606085013567ffffffffffffffff811115611db857611db761121a565b5b611dc48782880161161b565b91505092959194509250565b600060208284031215611de657611de5611215565b5b6000611df48482850161184a565b91505092915050565b7f4e487b7100000000000000000000000000000000000000000000000000000000600052602260045260246000fd5b60006002820490506001821680611e4457607f821691505b602082108103611e5757611e56611dfd565b5b50919050565b600081905092915050565b6000611e73826113d2565b611e7d8185611e5d565b9350611e8d8185602086016112c6565b80840191505092915050565b6000611ea58284611e68565b915081905092915050565b60008190508160005260206000209050919050565b60006020601f8301049050919050565b600082821b905092915050565b600060088302611f127fffffffffffffffffffffffffffffffffffffffffffffffffffffffffffffffff82611ed5565b611f1c8683611ed5565b95508019841693508086168417925050509392505050565b6000819050919050565b6000611f59611f54611f4f8461135c565b611f34565b61135c565b9050919050565b6000819050919050565b611f7383611f3e565b611f87611f7f82611f60565b848454611ee2565b825550505050565b600090565b611f9c611f8f565b611fa7818484611f6a565b505050565b5b81811015611fcb57611fc0600082611f94565b600181019050611fad565b5050565b601f82111561201057611fe181611eb0565b611fea84611ec5565b81016020851015611ff9578190505b61200d61200585611ec5565b830182611fac565b50505b505050565b600082821c905092915050565b600061203360001984600802612015565b1980831691505092915050565b600061204c8383612022565b9150826002028217905092915050565b612065826112aa565b67ffffffffffffffff81111561207e5761207d61147d565b5b6120888254611e2c565b612093828285611fcf565b600060209050601f8311600181146120c657600084156120b4578287015190505b6120be8582612040565b865550612126565b601f1984166120d486611eb0565b60005b828110156120fc578489015182556001820191506020850194506020810190506120d7565b868310156121195784890151612115601f891682612022565b8355505b6001600288020188555050505b505050505050565b600060808201905061214360008301876118d6565b61215060208301866118f2565b61215d60408301856118d6565b61216a60608301846118d6565b95945050505050565b7f696e76616c6964207369676e6174757265206c656e6774680000000000000000600082015250565b60006121a96018836112b5565b91506121b482612173565b602082019050919050565b600060208201905081810360008301526121d88161219c565b9050919050565b600081905092915050565b60006121f5826112aa565b6121ff81856121df565b935061220f8185602086016112c6565b80840191505092915050565b6000819050919050565b6122366122318261135c565b61221b565b82525050565b600061224882866121ea565b915061225482856121ea565b91506122608284612225565b602082019150819050949350505050565b60008190508160005260206000209050919050565b601f8211156122c75761229881612271565b6122a184611ec5565b810160208510156122b0578190505b6122c46122bc85611ec5565b830182611fac565b50505b505050565b6122d5826113d2565b67ffffffffffffffff8111156122ee576122ed61147d565b5b6122f88254611e2c565b612303828285612286565b600060209050601f8311600181146123365760008415612324578287015190505b61232e8582612040565b865550612396565b601f19841661234486612271565b60005b8281101561236c57848901518255600182019150602085019450602081019050612347565b868310156123895784890151612385601f891682612022565b8355505b6001600288020188555050505b505050505050565b7f19457468657265756d205369676e6564204d6573736167653a0a333200000000600082015250565b60006123d4601c836121df565b91506123df8261239e565b601c82019050919050565b6000819050919050565b61240561240082611829565b6123ea565b82525050565b6000612416826123c7565b915061242282846123f4565b6020820191508190509291505056fea26469706673582212208f941f1df8b823ad996e438e07971a9deb9f96d0a0d210db0446d14b8a92e7cf64736f6c63430008110033",
  "immutableReferences": {},
  "source": "// SPDX-License-Identifier: MIT\npragma solidity >=0.4.22 <0.9.0;\n\ncontract eSign {\n  mapping(address => string) public ttd;\n  mapping(bytes => kumpulanData) public DataTtd;\n  mapping(address => kumpulanRiwayat[]) public riwayat;\n\n  struct kumpulanRiwayat{\n    string timestamp;\n    bytes signature;\n    string perihal;\n  }\n\n  struct kumpulanData {\n    string perihal;\n    string CIDTtd;\n    string timestamp;\n    address addr;\n    string CIDTtdQr;\n  }\n\n  function setDataTtd(bytes memory sign, string memory perihal, string memory cidTtd, string memory timestamp, address addr, string memory cidTtdQr) public {\n    kumpulanData memory data = kumpulanData(perihal, cidTtd, timestamp, addr, cidTtdQr);\n    DataTtd[sign] = data;\n    setRiwayat(addr, timestamp, sign, perihal);\n  }\n\n  function getDataTtd(bytes memory sign) public view returns (string memory, string memory, string memory, address, string memory){\n    kumpulanData storage data = DataTtd[sign];\n    return (data.perihal, data.CIDTtd, data.timestamp, data.addr, data.CIDTtdQr);\n  }\n\n  function setRiwayat(address _addr, string memory timestamp, bytes memory sign, string memory perihal) public {\n    kumpulanRiwayat memory dataRiwayat = kumpulanRiwayat(timestamp, sign, perihal);\n    riwayat[_addr].push(dataRiwayat);\n  }\n// nilai yg dikembalikan bukan array struct\n  function getRiwayat(address _addr) public view returns (kumpulanRiwayat[] memory){\n    return riwayat[_addr];\n  }\n\n  function setTtd(address _addr, string memory CID) public {\n    ttd[_addr] = CID;\n  }\n\n  function getTtd(address _addr) public view returns (string memory) {\n    return ttd[_addr];\n  }\n\n  //validasi\n  function getMessageHash(string memory perihal, string memory cid, uint timestamp) public pure returns (bytes32) {\n    return keccak256(abi.encodePacked(perihal, cid, timestamp));\n  }\n\n  function getEthSignedMessageHash(bytes32 _messageHash) public pure returns (bytes32) {\n    return keccak256(abi.encodePacked(\"\\x19Ethereum Signed Message:\\n32\", _messageHash));\n  }\n\n  function verify(address _signer, string memory perihal, string memory cid, uint timestamp, bytes memory signature) public pure returns (bool) {\n    bytes32 messageHash = getMessageHash(perihal, cid, timestamp);\n    bytes32 ethSignedMessageHash = getEthSignedMessageHash(messageHash);\n\n    return recoverSigner(ethSignedMessageHash, signature) == _signer;\n  }\n\n  function recoverSigner(bytes32 _ethSignedMessageHash, bytes memory _signature) public pure returns (address) {\n    (bytes32 r, bytes32 s, uint8 v) = splitSignature(_signature);\n\n    return ecrecover(_ethSignedMessageHash, v, r, s);\n  }\n\n  function splitSignature(bytes memory sig) public pure returns (bytes32 r, bytes32 s, uint8 v) {\n    require(sig.length == 65, \"invalid signature length\");\n\n        assembly {\n            /*\n            First 32 bytes stores the length of the signature\n\n            add(sig, 32) = pointer of sig + 32\n            effectively, skips first 32 bytes of signature\n\n            mload(p) loads next 32 bytes starting at the memory address p into memory\n            */\n\n            // first 32 bytes, after the length prefix\n            r := mload(add(sig, 32))\n            // second 32 bytes\n            s := mload(add(sig, 64))\n            // final byte (first byte of the next 32 bytes)\n            v := byte(0, mload(add(sig, 96)))\n        }\n\n        // implicitly return (r, s, v)\n    }\n}\n",
  "sourcePath": "D:\\Blockchain\\Tugas Akhir\\contracts\\eSign.sol",
  "compiler": {
    "name": "solc",
    "version": "0.8.17+commit.8df45f5f.Emscripten.clang"
  },
  "schemaVersion": "3.4.10",
  "updatedAt": "2023-05-04T13:38:33.866Z",
  "networkType": "ethereum",
  "devdoc": {
    "kind": "dev",
    "methods": {},
    "version": 1
  },
  "userdoc": {
    "kind": "user",
    "methods": {},
    "version": 1
  }
}