{
  "contractName": "eSign",
  "abi": [
    {
      "inputs": [
        {
          "internalType": "bytes",
          "name": "",
          "type": "bytes"
        }
      ],
      "name": "DataTtd",
      "outputs": [
        {
          "internalType": "string",
          "name": "perihal",
          "type": "string"
        },
        {
          "internalType": "string",
          "name": "CIDTtd",
          "type": "string"
        },
        {
          "internalType": "string",
          "name": "timestamp",
          "type": "string"
        },
        {
          "internalType": "address",
          "name": "addr",
          "type": "address"
        },
        {
          "internalType": "string",
          "name": "CIDTtdQr",
          "type": "string"
        }
      ],
      "stateMutability": "view",
      "type": "function",
      "constant": true
    },
    {
      "inputs": [
        {
          "internalType": "address",
          "name": "",
          "type": "address"
        },
        {
          "internalType": "uint256",
          "name": "",
          "type": "uint256"
        }
      ],
      "name": "riwayat",
      "outputs": [
        {
          "internalType": "bytes",
          "name": "",
          "type": "bytes"
        }
      ],
      "stateMutability": "view",
      "type": "function",
      "constant": true
    },
    {
      "inputs": [
        {
          "internalType": "address",
          "name": "",
          "type": "address"
        }
      ],
      "name": "ttd",
      "outputs": [
        {
          "internalType": "string",
          "name": "",
          "type": "string"
        }
      ],
      "stateMutability": "view",
      "type": "function",
      "constant": true
    },
    {
      "inputs": [
        {
          "internalType": "bytes",
          "name": "sign",
          "type": "bytes"
        },
        {
          "internalType": "string",
          "name": "perihal",
          "type": "string"
        },
        {
          "internalType": "string",
          "name": "cidTtd",
          "type": "string"
        },
        {
          "internalType": "string",
          "name": "timestamp",
          "type": "string"
        },
        {
          "internalType": "address",
          "name": "addr",
          "type": "address"
        },
        {
          "internalType": "string",
          "name": "cidTtdQr",
          "type": "string"
        }
      ],
      "name": "setDataTtd",
      "outputs": [],
      "stateMutability": "nonpayable",
      "type": "function"
    },
    {
      "inputs": [
        {
          "internalType": "bytes",
          "name": "sign",
          "type": "bytes"
        }
      ],
      "name": "getDataTtd",
      "outputs": [
        {
          "internalType": "string",
          "name": "",
          "type": "string"
        },
        {
          "internalType": "string",
          "name": "",
          "type": "string"
        },
        {
          "internalType": "string",
          "name": "",
          "type": "string"
        },
        {
          "internalType": "address",
          "name": "",
          "type": "address"
        },
        {
          "internalType": "string",
          "name": "",
          "type": "string"
        }
      ],
      "stateMutability": "view",
      "type": "function",
      "constant": true
    },
    {
      "inputs": [
        {
          "internalType": "address",
          "name": "_addr",
          "type": "address"
        },
        {
          "internalType": "bytes",
          "name": "sign",
          "type": "bytes"
        }
      ],
      "name": "setRiwayat",
      "outputs": [],
      "stateMutability": "nonpayable",
      "type": "function"
    },
    {
      "inputs": [
        {
          "internalType": "address",
          "name": "_addr",
          "type": "address"
        }
      ],
      "name": "getRiwayat",
      "outputs": [
        {
          "internalType": "bytes[]",
          "name": "",
          "type": "bytes[]"
        }
      ],
      "stateMutability": "view",
      "type": "function",
      "constant": true
    },
    {
      "inputs": [
        {
          "internalType": "address",
          "name": "_addr",
          "type": "address"
        },
        {
          "internalType": "string",
          "name": "CID",
          "type": "string"
        }
      ],
      "name": "setTtd",
      "outputs": [],
      "stateMutability": "nonpayable",
      "type": "function"
    },
    {
      "inputs": [
        {
          "internalType": "address",
          "name": "_addr",
          "type": "address"
        }
      ],
      "name": "getTtd",
      "outputs": [
        {
          "internalType": "string",
          "name": "",
          "type": "string"
        }
      ],
      "stateMutability": "view",
      "type": "function",
      "constant": true
    },
    {
      "inputs": [
        {
          "internalType": "string",
          "name": "perihal",
          "type": "string"
        },
        {
          "internalType": "string",
          "name": "cid",
          "type": "string"
        },
        {
          "internalType": "uint256",
          "name": "timestamp",
          "type": "uint256"
        }
      ],
      "name": "getMessageHash",
      "outputs": [
        {
          "internalType": "bytes32",
          "name": "",
          "type": "bytes32"
        }
      ],
      "stateMutability": "pure",
      "type": "function",
      "constant": true
    },
    {
      "inputs": [
        {
          "internalType": "bytes32",
          "name": "_messageHash",
          "type": "bytes32"
        }
      ],
      "name": "getEthSignedMessageHash",
      "outputs": [
        {
          "internalType": "bytes32",
          "name": "",
          "type": "bytes32"
        }
      ],
      "stateMutability": "pure",
      "type": "function",
      "constant": true
    },
    {
      "inputs": [
        {
          "internalType": "address",
          "name": "_signer",
          "type": "address"
        },
        {
          "internalType": "string",
          "name": "perihal",
          "type": "string"
        },
        {
          "internalType": "string",
          "name": "cid",
          "type": "string"
        },
        {
          "internalType": "uint256",
          "name": "timestamp",
          "type": "uint256"
        },
        {
          "internalType": "bytes",
          "name": "signature",
          "type": "bytes"
        }
      ],
      "name": "verify",
      "outputs": [
        {
          "internalType": "bool",
          "name": "",
          "type": "bool"
        }
      ],
      "stateMutability": "pure",
      "type": "function",
      "constant": true
    },
    {
      "inputs": [
        {
          "internalType": "bytes32",
          "name": "_ethSignedMessageHash",
          "type": "bytes32"
        },
        {
          "internalType": "bytes",
          "name": "_signature",
          "type": "bytes"
        }
      ],
      "name": "recoverSigner",
      "outputs": [
        {
          "internalType": "address",
          "name": "",
          "type": "address"
        }
      ],
      "stateMutability": "pure",
      "type": "function",
      "constant": true
    },
    {
      "inputs": [
        {
          "internalType": "bytes",
          "name": "sig",
          "type": "bytes"
        }
      ],
      "name": "splitSignature",
      "outputs": [
        {
          "internalType": "bytes32",
          "name": "r",
          "type": "bytes32"
        },
        {
          "internalType": "bytes32",
          "name": "s",
          "type": "bytes32"
        },
        {
          "internalType": "uint8",
          "name": "v",
          "type": "uint8"
        }
      ],
      "stateMutability": "pure",
      "type": "function",
      "constant": true
    }
  ],
  "bytecode": "0x608060405234801561001057600080fd5b50612073806100206000396000f3fe608060405234801561001057600080fd5b50600436106100ea5760003560e01c8063a7bb58031161008c578063c1a7562f11610066578063c1a7562f14610299578063dc9ec7b7146102cd578063e9c5dea1146102fd578063fa5408011461032d576100ea565b8063a7bb58031461021b578063a84555251461024d578063ac823ee314610269576100ea565b80634a5325ba116100c85780634a5325ba1461016b5780635a17bd081461019b5780638006235b146101cf57806397aba7f9146101eb576100ea565b806310a9b211146100ef57806319ead2251461011f57806347a372ed1461014f575b600080fd5b61010960048036038101906101049190610fba565b61035d565b6040516101169190611077565b60405180910390f35b610139600480360381019061013491906110cf565b61042d565b6040516101469190611164565b60405180910390f35b6101696004803603810190610164919061135c565b6104e6565b005b61018560048036038101906101809190610fba565b6105fb565b6040516101929190611077565b60405180910390f35b6101b560048036038101906101b09190611475565b61069b565b6040516101c69594939291906114cd565b60405180910390f35b6101e960048036038101906101e4919061153c565b610927565b005b610205600480360381019061020091906115ce565b61099d565b604051610212919061162a565b60405180910390f35b61023560048036038101906102309190611475565b610a0c565b60405161024493929190611670565b60405180910390f35b610267600480360381019061026291906116a7565b610a74565b005b610283600480360381019061027e9190611703565b610ac4565b604051610290919061178e565b60405180910390f35b6102b360048036038101906102ae9190611475565b610afa565b6040516102c49594939291906114cd565b60405180910390f35b6102e760048036038101906102e291906117a9565b610d9e565b6040516102f49190611893565b60405180910390f35b61031760048036038101906103129190610fba565b610e00565b60405161032491906119ba565b60405180910390f35b610347600480360381019061034291906119dc565b610f18565b604051610354919061178e565b60405180910390f35b60606000808373ffffffffffffffffffffffffffffffffffffffff1673ffffffffffffffffffffffffffffffffffffffff16815260200190815260200160002080546103a890611a38565b80601f01602080910402602001604051908101604052809291908181526020018280546103d490611a38565b80156104215780601f106103f657610100808354040283529160200191610421565b820191906000526020600020905b81548152906001019060200180831161040457829003601f168201915b50505050509050919050565b6002602052816000526040600020818154811061044957600080fd5b9060005260206000200160009150915050805461046590611a38565b80601f016020809104026020016040519081016040528092919081815260200182805461049190611a38565b80156104de5780601f106104b3576101008083540402835291602001916104de565b820191906000526020600020905b8154815290600101906020018083116104c157829003601f168201915b505050505081565b60006040518060a001604052808781526020018681526020018581526020018473ffffffffffffffffffffffffffffffffffffffff168152602001838152509050806001886040516105389190611aa5565b9081526020016040518091039020600082015181600001908161055b9190611c68565b5060208201518160010190816105719190611c68565b5060408201518160020190816105879190611c68565b5060608201518160030160006101000a81548173ffffffffffffffffffffffffffffffffffffffff021916908373ffffffffffffffffffffffffffffffffffffffff16021790555060808201518160040190816105e49190611c68565b509050506105f28388610927565b50505050505050565b6000602052806000526040600020600091509050805461061a90611a38565b80601f016020809104026020016040519081016040528092919081815260200182805461064690611a38565b80156106935780601f1061066857610100808354040283529160200191610693565b820191906000526020600020905b81548152906001019060200180831161067657829003601f168201915b505050505081565b6001818051602081018201805184825260208301602085012081835280955050505050506000915090508060000180546106d490611a38565b80601f016020809104026020016040519081016040528092919081815260200182805461070090611a38565b801561074d5780601f106107225761010080835404028352916020019161074d565b820191906000526020600020905b81548152906001019060200180831161073057829003601f168201915b50505050509080600101805461076290611a38565b80601f016020809104026020016040519081016040528092919081815260200182805461078e90611a38565b80156107db5780601f106107b0576101008083540402835291602001916107db565b820191906000526020600020905b8154815290600101906020018083116107be57829003601f168201915b5050505050908060020180546107f090611a38565b80601f016020809104026020016040519081016040528092919081815260200182805461081c90611a38565b80156108695780601f1061083e57610100808354040283529160200191610869565b820191906000526020600020905b81548152906001019060200180831161084c57829003601f168201915b5050505050908060030160009054906101000a900473ffffffffffffffffffffffffffffffffffffffff16908060040180546108a490611a38565b80601f01602080910402602001604051908101604052809291908181526020018280546108d090611a38565b801561091d5780601f106108f25761010080835404028352916020019161091d565b820191906000526020600020905b81548152906001019060200180831161090057829003601f168201915b5050505050905085565b600260008373ffffffffffffffffffffffffffffffffffffffff1673ffffffffffffffffffffffffffffffffffffffff168152602001908152602001600020819080600181540180825580915050600190039060005260206000200160009091909190915090816109989190611d95565b505050565b6000806000806109ac85610a0c565b925092509250600186828585604051600081526020016040526040516109d59493929190611e67565b6020604051602081039080840390855afa1580156109f7573d6000803e3d6000fd5b50505060206040510351935050505092915050565b60008060006041845114610a55576040517f08c379a0000000000000000000000000000000000000000000000000000000008152600401610a4c90611ef8565b60405180910390fd5b6020840151925060408401519150606084015160001a90509193909250565b806000808473ffffffffffffffffffffffffffffffffffffffff1673ffffffffffffffffffffffffffffffffffffffff1681526020019081526020016000209081610abf9190611c68565b505050565b6000838383604051602001610adb93929190611f75565b6040516020818303038152906040528051906020012090509392505050565b6060806060600060606000600187604051610b159190611aa5565b908152602001604051809103902090508060000181600101826002018360030160009054906101000a900473ffffffffffffffffffffffffffffffffffffffff1684600401848054610b6690611a38565b80601f0160208091040260200160405190810160405280929190818152602001828054610b9290611a38565b8015610bdf5780601f10610bb457610100808354040283529160200191610bdf565b820191906000526020600020905b815481529060010190602001808311610bc257829003601f168201915b50505050509450838054610bf290611a38565b80601f0160208091040260200160405190810160405280929190818152602001828054610c1e90611a38565b8015610c6b5780601f10610c4057610100808354040283529160200191610c6b565b820191906000526020600020905b815481529060010190602001808311610c4e57829003601f168201915b50505050509350828054610c7e90611a38565b80601f0160208091040260200160405190810160405280929190818152602001828054610caa90611a38565b8015610cf75780601f10610ccc57610100808354040283529160200191610cf7565b820191906000526020600020905b815481529060010190602001808311610cda57829003601f168201915b50505050509250808054610d0a90611a38565b80601f0160208091040260200160405190810160405280929190818152602001828054610d3690611a38565b8015610d835780601f10610d5857610100808354040283529160200191610d83565b820191906000526020600020905b815481529060010190602001808311610d6657829003601f168201915b50505050509050955095509550955095505091939590929450565b600080610dac868686610ac4565b90506000610db982610f18565b90508773ffffffffffffffffffffffffffffffffffffffff16610ddc828661099d565b73ffffffffffffffffffffffffffffffffffffffff16149250505095945050505050565b6060600260008373ffffffffffffffffffffffffffffffffffffffff1673ffffffffffffffffffffffffffffffffffffffff168152602001908152602001600020805480602002602001604051908101604052809291908181526020016000905b82821015610f0d578382906000526020600020018054610e8090611a38565b80601f0160208091040260200160405190810160405280929190818152602001828054610eac90611a38565b8015610ef95780601f10610ece57610100808354040283529160200191610ef9565b820191906000526020600020905b815481529060010190602001808311610edc57829003601f168201915b505050505081526020019060010190610e61565b505050509050919050565b600081604051602001610f2b9190612017565b604051602081830303815290604052805190602001209050919050565b6000604051905090565b600080fd5b600080fd5b600073ffffffffffffffffffffffffffffffffffffffff82169050919050565b6000610f8782610f5c565b9050919050565b610f9781610f7c565b8114610fa257600080fd5b50565b600081359050610fb481610f8e565b92915050565b600060208284031215610fd057610fcf610f52565b5b6000610fde84828501610fa5565b91505092915050565b600081519050919050565b600082825260208201905092915050565b60005b83811015611021578082015181840152602081019050611006565b60008484015250505050565b6000601f19601f8301169050919050565b600061104982610fe7565b6110538185610ff2565b9350611063818560208601611003565b61106c8161102d565b840191505092915050565b60006020820190508181036000830152611091818461103e565b905092915050565b6000819050919050565b6110ac81611099565b81146110b757600080fd5b50565b6000813590506110c9816110a3565b92915050565b600080604083850312156110e6576110e5610f52565b5b60006110f485828601610fa5565b9250506020611105858286016110ba565b9150509250929050565b600081519050919050565b600082825260208201905092915050565b60006111368261110f565b611140818561111a565b9350611150818560208601611003565b6111598161102d565b840191505092915050565b6000602082019050818103600083015261117e818461112b565b905092915050565b600080fd5b600080fd5b7f4e487b7100000000000000000000000000000000000000000000000000000000600052604160045260246000fd5b6111c88261102d565b810181811067ffffffffffffffff821117156111e7576111e6611190565b5b80604052505050565b60006111fa610f48565b905061120682826111bf565b919050565b600067ffffffffffffffff82111561122657611225611190565b5b61122f8261102d565b9050602081019050919050565b82818337600083830152505050565b600061125e6112598461120b565b6111f0565b90508281526020810184848401111561127a5761127961118b565b5b61128584828561123c565b509392505050565b600082601f8301126112a2576112a1611186565b5b81356112b284826020860161124b565b91505092915050565b600067ffffffffffffffff8211156112d6576112d5611190565b5b6112df8261102d565b9050602081019050919050565b60006112ff6112fa846112bb565b6111f0565b90508281526020810184848401111561131b5761131a61118b565b5b61132684828561123c565b509392505050565b600082601f83011261134357611342611186565b5b81356113538482602086016112ec565b91505092915050565b60008060008060008060c0878903121561137957611378610f52565b5b600087013567ffffffffffffffff81111561139757611396610f57565b5b6113a389828a0161128d565b965050602087013567ffffffffffffffff8111156113c4576113c3610f57565b5b6113d089828a0161132e565b955050604087013567ffffffffffffffff8111156113f1576113f0610f57565b5b6113fd89828a0161132e565b945050606087013567ffffffffffffffff81111561141e5761141d610f57565b5b61142a89828a0161132e565b935050608061143b89828a01610fa5565b92505060a087013567ffffffffffffffff81111561145c5761145b610f57565b5b61146889828a0161132e565b9150509295509295509295565b60006020828403121561148b5761148a610f52565b5b600082013567ffffffffffffffff8111156114a9576114a8610f57565b5b6114b58482850161128d565b91505092915050565b6114c781610f7c565b82525050565b600060a08201905081810360008301526114e7818861103e565b905081810360208301526114fb818761103e565b9050818103604083015261150f818661103e565b905061151e60608301856114be565b8181036080830152611530818461103e565b90509695505050505050565b6000806040838503121561155357611552610f52565b5b600061156185828601610fa5565b925050602083013567ffffffffffffffff81111561158257611581610f57565b5b61158e8582860161128d565b9150509250929050565b6000819050919050565b6115ab81611598565b81146115b657600080fd5b50565b6000813590506115c8816115a2565b92915050565b600080604083850312156115e5576115e4610f52565b5b60006115f3858286016115b9565b925050602083013567ffffffffffffffff81111561161457611613610f57565b5b6116208582860161128d565b9150509250929050565b600060208201905061163f60008301846114be565b92915050565b61164e81611598565b82525050565b600060ff82169050919050565b61166a81611654565b82525050565b60006060820190506116856000830186611645565b6116926020830185611645565b61169f6040830184611661565b949350505050565b600080604083850312156116be576116bd610f52565b5b60006116cc85828601610fa5565b925050602083013567ffffffffffffffff8111156116ed576116ec610f57565b5b6116f98582860161132e565b9150509250929050565b60008060006060848603121561171c5761171b610f52565b5b600084013567ffffffffffffffff81111561173a57611739610f57565b5b6117468682870161132e565b935050602084013567ffffffffffffffff81111561176757611766610f57565b5b6117738682870161132e565b9250506040611784868287016110ba565b9150509250925092565b60006020820190506117a36000830184611645565b92915050565b600080600080600060a086880312156117c5576117c4610f52565b5b60006117d388828901610fa5565b955050602086013567ffffffffffffffff8111156117f4576117f3610f57565b5b6118008882890161132e565b945050604086013567ffffffffffffffff81111561182157611820610f57565b5b61182d8882890161132e565b935050606061183e888289016110ba565b925050608086013567ffffffffffffffff81111561185f5761185e610f57565b5b61186b8882890161128d565b9150509295509295909350565b60008115159050919050565b61188d81611878565b82525050565b60006020820190506118a86000830184611884565b92915050565b600081519050919050565b600082825260208201905092915050565b6000819050602082019050919050565b600082825260208201905092915050565b60006118f68261110f565b61190081856118da565b9350611910818560208601611003565b6119198161102d565b840191505092915050565b600061193083836118eb565b905092915050565b6000602082019050919050565b6000611950826118ae565b61195a81856118b9565b93508360208202850161196c856118ca565b8060005b858110156119a857848403895281516119898582611924565b945061199483611938565b925060208a01995050600181019050611970565b50829750879550505050505092915050565b600060208201905081810360008301526119d48184611945565b905092915050565b6000602082840312156119f2576119f1610f52565b5b6000611a00848285016115b9565b91505092915050565b7f4e487b7100000000000000000000000000000000000000000000000000000000600052602260045260246000fd5b60006002820490506001821680611a5057607f821691505b602082108103611a6357611a62611a09565b5b50919050565b600081905092915050565b6000611a7f8261110f565b611a898185611a69565b9350611a99818560208601611003565b80840191505092915050565b6000611ab18284611a74565b915081905092915050565b60008190508160005260206000209050919050565b60006020601f8301049050919050565b600082821b905092915050565b600060088302611b1e7fffffffffffffffffffffffffffffffffffffffffffffffffffffffffffffffff82611ae1565b611b288683611ae1565b95508019841693508086168417925050509392505050565b6000819050919050565b6000611b65611b60611b5b84611099565b611b40565b611099565b9050919050565b6000819050919050565b611b7f83611b4a565b611b93611b8b82611b6c565b848454611aee565b825550505050565b600090565b611ba8611b9b565b611bb3818484611b76565b505050565b5b81811015611bd757611bcc600082611ba0565b600181019050611bb9565b5050565b601f821115611c1c57611bed81611abc565b611bf684611ad1565b81016020851015611c05578190505b611c19611c1185611ad1565b830182611bb8565b50505b505050565b600082821c905092915050565b6000611c3f60001984600802611c21565b1980831691505092915050565b6000611c588383611c2e565b9150826002028217905092915050565b611c7182610fe7565b67ffffffffffffffff811115611c8a57611c89611190565b5b611c948254611a38565b611c9f828285611bdb565b600060209050601f831160018114611cd25760008415611cc0578287015190505b611cca8582611c4c565b865550611d32565b601f198416611ce086611abc565b60005b82811015611d0857848901518255600182019150602085019450602081019050611ce3565b86831015611d255784890151611d21601f891682611c2e565b8355505b6001600288020188555050505b505050505050565b60008190508160005260206000209050919050565b601f821115611d9057611d6181611d3a565b611d6a84611ad1565b81016020851015611d79578190505b611d8d611d8585611ad1565b830182611bb8565b50505b505050565b611d9e8261110f565b67ffffffffffffffff811115611db757611db6611190565b5b611dc18254611a38565b611dcc828285611d4f565b600060209050601f831160018114611dff5760008415611ded578287015190505b611df78582611c4c565b865550611e5f565b601f198416611e0d86611d3a565b60005b82811015611e3557848901518255600182019150602085019450602081019050611e10565b86831015611e525784890151611e4e601f891682611c2e565b8355505b6001600288020188555050505b505050505050565b6000608082019050611e7c6000830187611645565b611e896020830186611661565b611e966040830185611645565b611ea36060830184611645565b95945050505050565b7f696e76616c6964207369676e6174757265206c656e6774680000000000000000600082015250565b6000611ee2601883610ff2565b9150611eed82611eac565b602082019050919050565b60006020820190508181036000830152611f1181611ed5565b9050919050565b600081905092915050565b6000611f2e82610fe7565b611f388185611f18565b9350611f48818560208601611003565b80840191505092915050565b6000819050919050565b611f6f611f6a82611099565b611f54565b82525050565b6000611f818286611f23565b9150611f8d8285611f23565b9150611f998284611f5e565b602082019150819050949350505050565b7f19457468657265756d205369676e6564204d6573736167653a0a333200000000600082015250565b6000611fe0601c83611f18565b9150611feb82611faa565b601c82019050919050565b6000819050919050565b61201161200c82611598565b611ff6565b82525050565b600061202282611fd3565b915061202e8284612000565b6020820191508190509291505056fea2646970667358221220c7703f7e37f81e9b488f26f76baaeb4b0f292500fbb64c916dd36c54a3fed3b564736f6c63430008110033",
  "immutableReferences": {},
  "source": "// SPDX-License-Identifier: MIT\npragma solidity >=0.4.22 <0.9.0;\n\ncontract eSign {\n  mapping(address => string) public ttd;\n  mapping(bytes => kumpulanData) public DataTtd;\n  mapping(address => bytes[]) public riwayat;\n\n  struct kumpulanData {\n    string perihal;\n    string CIDTtd;\n    string timestamp;\n    address addr;\n    string CIDTtdQr;\n  }\n\n  function setDataTtd(bytes memory sign, string memory perihal, string memory cidTtd, string memory timestamp, address addr, string memory cidTtdQr) public {\n    kumpulanData memory data = kumpulanData(perihal, cidTtd, timestamp, addr, cidTtdQr);\n    DataTtd[sign] = data;\n    setRiwayat(addr, sign);\n  }\n\n  function getDataTtd(bytes memory sign) public view returns (string memory, string memory, string memory, address, string memory){\n    kumpulanData storage data = DataTtd[sign];\n    return (data.perihal, data.CIDTtd, data.timestamp, data.addr, data.CIDTtdQr);\n  }\n\n  function setRiwayat(address _addr, bytes memory sign) public {\n    riwayat[_addr].push(sign);\n  }\n\n  function getRiwayat(address _addr) public view returns (bytes[] memory){\n    return riwayat[_addr];\n  }\n\n  function setTtd(address _addr, string memory CID) public {\n    ttd[_addr] = CID;\n  }\n\n  function getTtd(address _addr) public view returns (string memory) {\n    return ttd[_addr];\n  }\n\n  //validasi\n  function getMessageHash(string memory perihal, string memory cid, uint timestamp) public pure returns (bytes32) {\n    return keccak256(abi.encodePacked(perihal, cid, timestamp));\n  }\n\n  function getEthSignedMessageHash(bytes32 _messageHash) public pure returns (bytes32) {\n    return keccak256(abi.encodePacked(\"\\x19Ethereum Signed Message:\\n32\", _messageHash));\n  }\n\n  function verify(address _signer, string memory perihal, string memory cid, uint timestamp, bytes memory signature) public pure returns (bool) {\n    bytes32 messageHash = getMessageHash(perihal, cid, timestamp);\n    bytes32 ethSignedMessageHash = getEthSignedMessageHash(messageHash);\n\n    return recoverSigner(ethSignedMessageHash, signature) == _signer;\n  }\n\n  function recoverSigner(bytes32 _ethSignedMessageHash, bytes memory _signature) public pure returns (address) {\n    (bytes32 r, bytes32 s, uint8 v) = splitSignature(_signature);\n\n    return ecrecover(_ethSignedMessageHash, v, r, s);\n  }\n\n  function splitSignature(bytes memory sig) public pure returns (bytes32 r, bytes32 s, uint8 v) {\n    require(sig.length == 65, \"invalid signature length\");\n\n        assembly {\n            /*\n            First 32 bytes stores the length of the signature\n\n            add(sig, 32) = pointer of sig + 32\n            effectively, skips first 32 bytes of signature\n\n            mload(p) loads next 32 bytes starting at the memory address p into memory\n            */\n\n            // first 32 bytes, after the length prefix\n            r := mload(add(sig, 32))\n            // second 32 bytes\n            s := mload(add(sig, 64))\n            // final byte (first byte of the next 32 bytes)\n            v := byte(0, mload(add(sig, 96)))\n        }\n\n        // implicitly return (r, s, v)\n    }\n}\n",
  "sourcePath": "D:\\Blockchain\\Tugas Akhir\\contracts\\eSign.sol",
  "compiler": {
    "name": "solc",
    "version": "0.8.17+commit.8df45f5f.Emscripten.clang"
  },
  "schemaVersion": "3.4.10",
  "updatedAt": "2023-05-03T12:06:01.135Z",
  "networkType": "ethereum",
  "devdoc": {
    "kind": "dev",
    "methods": {},
    "version": 1
  },
  "userdoc": {
    "kind": "user",
    "methods": {},
    "version": 1
  }
}