{
  "contractName": "eSign",
  "abi": [
    {
      "inputs": [
        {
          "internalType": "bytes",
          "name": "",
          "type": "bytes"
        }
      ],
      "name": "DataTtd",
      "outputs": [
        {
          "internalType": "string",
          "name": "perihal",
          "type": "string"
        },
        {
          "internalType": "string",
          "name": "CIDTtd",
          "type": "string"
        },
        {
          "internalType": "uint256",
          "name": "timestamp",
          "type": "uint256"
        },
        {
          "internalType": "address",
          "name": "addr",
          "type": "address"
        },
        {
          "internalType": "string",
          "name": "CIDTtdQr",
          "type": "string"
        }
      ],
      "stateMutability": "view",
      "type": "function",
      "constant": true
    },
    {
      "inputs": [
        {
          "internalType": "address",
          "name": "",
          "type": "address"
        },
        {
          "internalType": "uint256",
          "name": "",
          "type": "uint256"
        }
      ],
      "name": "riwayat",
      "outputs": [
        {
          "internalType": "bytes",
          "name": "",
          "type": "bytes"
        }
      ],
      "stateMutability": "view",
      "type": "function",
      "constant": true
    },
    {
      "inputs": [
        {
          "internalType": "address",
          "name": "",
          "type": "address"
        }
      ],
      "name": "ttd",
      "outputs": [
        {
          "internalType": "string",
          "name": "",
          "type": "string"
        }
      ],
      "stateMutability": "view",
      "type": "function",
      "constant": true
    },
    {
      "inputs": [
        {
          "internalType": "bytes",
          "name": "sign",
          "type": "bytes"
        },
        {
          "internalType": "string",
          "name": "perihal",
          "type": "string"
        },
        {
          "internalType": "string",
          "name": "cidTtd",
          "type": "string"
        },
        {
          "internalType": "uint256",
          "name": "timestamp",
          "type": "uint256"
        },
        {
          "internalType": "address",
          "name": "addr",
          "type": "address"
        },
        {
          "internalType": "string",
          "name": "cidTtdQr",
          "type": "string"
        }
      ],
      "name": "setDataTtd",
      "outputs": [],
      "stateMutability": "nonpayable",
      "type": "function"
    },
    {
      "inputs": [
        {
          "internalType": "bytes",
          "name": "sign",
          "type": "bytes"
        }
      ],
      "name": "getDataTtd",
      "outputs": [
        {
          "internalType": "string",
          "name": "",
          "type": "string"
        },
        {
          "internalType": "string",
          "name": "",
          "type": "string"
        },
        {
          "internalType": "uint256",
          "name": "",
          "type": "uint256"
        },
        {
          "internalType": "address",
          "name": "",
          "type": "address"
        },
        {
          "internalType": "string",
          "name": "",
          "type": "string"
        }
      ],
      "stateMutability": "view",
      "type": "function",
      "constant": true
    },
    {
      "inputs": [
        {
          "internalType": "address",
          "name": "_addr",
          "type": "address"
        },
        {
          "internalType": "bytes",
          "name": "sign",
          "type": "bytes"
        }
      ],
      "name": "setRiwayat",
      "outputs": [],
      "stateMutability": "nonpayable",
      "type": "function"
    },
    {
      "inputs": [
        {
          "internalType": "address",
          "name": "_addr",
          "type": "address"
        }
      ],
      "name": "getRiwayat",
      "outputs": [
        {
          "internalType": "bytes[]",
          "name": "",
          "type": "bytes[]"
        }
      ],
      "stateMutability": "view",
      "type": "function",
      "constant": true
    },
    {
      "inputs": [
        {
          "internalType": "address",
          "name": "_addr",
          "type": "address"
        },
        {
          "internalType": "string",
          "name": "CID",
          "type": "string"
        }
      ],
      "name": "setTtd",
      "outputs": [],
      "stateMutability": "nonpayable",
      "type": "function"
    },
    {
      "inputs": [
        {
          "internalType": "address",
          "name": "_addr",
          "type": "address"
        }
      ],
      "name": "getTtd",
      "outputs": [
        {
          "internalType": "string",
          "name": "",
          "type": "string"
        }
      ],
      "stateMutability": "view",
      "type": "function",
      "constant": true
    }
  ],
  "bytecode": "0x608060405234801561001057600080fd5b50611790806100206000396000f3fe608060405234801561001057600080fd5b50600436106100935760003560e01c80638006235b116100665780638006235b1461015c578063a68ccb0614610178578063a845552514610194578063c1a7562f146101b0578063e9c5dea1146101e457610093565b806310a9b2111461009857806319ead225146100c85780634a5325ba146100f85780635a17bd0814610128575b600080fd5b6100b260048036038101906100ad9190610ba8565b610214565b6040516100bf9190610c65565b60405180910390f35b6100e260048036038101906100dd9190610cbd565b6102e4565b6040516100ef9190610d52565b60405180910390f35b610112600480360381019061010d9190610ba8565b61039d565b60405161011f9190610c65565b60405180910390f35b610142600480360381019061013d9190610ea9565b61043d565b604051610153959493929190610f10565b60405180910390f35b61017660048036038101906101719190610f78565b610641565b005b610192600480360381019061018d9190611075565b6106b7565b005b6101ae60048036038101906101a99190611172565b6107b6565b005b6101ca60048036038101906101c59190610ea9565b610806565b6040516101db959493929190610f10565b60405180910390f35b6101fe60048036038101906101f99190610ba8565b610a1e565b60405161020b91906112da565b60405180910390f35b60606000808373ffffffffffffffffffffffffffffffffffffffff1673ffffffffffffffffffffffffffffffffffffffff168152602001908152602001600020805461025f9061132b565b80601f016020809104026020016040519081016040528092919081815260200182805461028b9061132b565b80156102d85780601f106102ad576101008083540402835291602001916102d8565b820191906000526020600020905b8154815290600101906020018083116102bb57829003601f168201915b50505050509050919050565b6002602052816000526040600020818154811061030057600080fd5b9060005260206000200160009150915050805461031c9061132b565b80601f01602080910402602001604051908101604052809291908181526020018280546103489061132b565b80156103955780601f1061036a57610100808354040283529160200191610395565b820191906000526020600020905b81548152906001019060200180831161037857829003601f168201915b505050505081565b600060205280600052604060002060009150905080546103bc9061132b565b80601f01602080910402602001604051908101604052809291908181526020018280546103e89061132b565b80156104355780601f1061040a57610100808354040283529160200191610435565b820191906000526020600020905b81548152906001019060200180831161041857829003601f168201915b505050505081565b6001818051602081018201805184825260208301602085012081835280955050505050506000915090508060000180546104769061132b565b80601f01602080910402602001604051908101604052809291908181526020018280546104a29061132b565b80156104ef5780601f106104c4576101008083540402835291602001916104ef565b820191906000526020600020905b8154815290600101906020018083116104d257829003601f168201915b5050505050908060010180546105049061132b565b80601f01602080910402602001604051908101604052809291908181526020018280546105309061132b565b801561057d5780601f106105525761010080835404028352916020019161057d565b820191906000526020600020905b81548152906001019060200180831161056057829003601f168201915b5050505050908060020154908060030160009054906101000a900473ffffffffffffffffffffffffffffffffffffffff16908060040180546105be9061132b565b80601f01602080910402602001604051908101604052809291908181526020018280546105ea9061132b565b80156106375780601f1061060c57610100808354040283529160200191610637565b820191906000526020600020905b81548152906001019060200180831161061a57829003601f168201915b5050505050905085565b600260008373ffffffffffffffffffffffffffffffffffffffff1673ffffffffffffffffffffffffffffffffffffffff168152602001908152602001600020819080600181540180825580915050600190039060005260206000200160009091909190915090816106b29190611508565b505050565b60006040518060a001604052808781526020018681526020018581526020018473ffffffffffffffffffffffffffffffffffffffff168152602001838152509050806001886040516107099190611616565b9081526020016040518091039020600082015181600001908161072c9190611688565b5060208201518160010190816107429190611688565b506040820151816002015560608201518160030160006101000a81548173ffffffffffffffffffffffffffffffffffffffff021916908373ffffffffffffffffffffffffffffffffffffffff16021790555060808201518160040190816107a99190611688565b5090505050505050505050565b806000808473ffffffffffffffffffffffffffffffffffffffff1673ffffffffffffffffffffffffffffffffffffffff16815260200190815260200160002090816108019190611688565b505050565b606080600080606060006001876040516108209190611616565b90815260200160405180910390209050806000018160010182600201548360030160009054906101000a900473ffffffffffffffffffffffffffffffffffffffff16846004018480546108729061132b565b80601f016020809104026020016040519081016040528092919081815260200182805461089e9061132b565b80156108eb5780601f106108c0576101008083540402835291602001916108eb565b820191906000526020600020905b8154815290600101906020018083116108ce57829003601f168201915b505050505094508380546108fe9061132b565b80601f016020809104026020016040519081016040528092919081815260200182805461092a9061132b565b80156109775780601f1061094c57610100808354040283529160200191610977565b820191906000526020600020905b81548152906001019060200180831161095a57829003601f168201915b5050505050935080805461098a9061132b565b80601f01602080910402602001604051908101604052809291908181526020018280546109b69061132b565b8015610a035780601f106109d857610100808354040283529160200191610a03565b820191906000526020600020905b8154815290600101906020018083116109e657829003601f168201915b50505050509050955095509550955095505091939590929450565b6060600260008373ffffffffffffffffffffffffffffffffffffffff1673ffffffffffffffffffffffffffffffffffffffff168152602001908152602001600020805480602002602001604051908101604052809291908181526020016000905b82821015610b2b578382906000526020600020018054610a9e9061132b565b80601f0160208091040260200160405190810160405280929190818152602001828054610aca9061132b565b8015610b175780601f10610aec57610100808354040283529160200191610b17565b820191906000526020600020905b815481529060010190602001808311610afa57829003601f168201915b505050505081526020019060010190610a7f565b505050509050919050565b6000604051905090565b600080fd5b600080fd5b600073ffffffffffffffffffffffffffffffffffffffff82169050919050565b6000610b7582610b4a565b9050919050565b610b8581610b6a565b8114610b9057600080fd5b50565b600081359050610ba281610b7c565b92915050565b600060208284031215610bbe57610bbd610b40565b5b6000610bcc84828501610b93565b91505092915050565b600081519050919050565b600082825260208201905092915050565b60005b83811015610c0f578082015181840152602081019050610bf4565b60008484015250505050565b6000601f19601f8301169050919050565b6000610c3782610bd5565b610c418185610be0565b9350610c51818560208601610bf1565b610c5a81610c1b565b840191505092915050565b60006020820190508181036000830152610c7f8184610c2c565b905092915050565b6000819050919050565b610c9a81610c87565b8114610ca557600080fd5b50565b600081359050610cb781610c91565b92915050565b60008060408385031215610cd457610cd3610b40565b5b6000610ce285828601610b93565b9250506020610cf385828601610ca8565b9150509250929050565b600081519050919050565b600082825260208201905092915050565b6000610d2482610cfd565b610d2e8185610d08565b9350610d3e818560208601610bf1565b610d4781610c1b565b840191505092915050565b60006020820190508181036000830152610d6c8184610d19565b905092915050565b600080fd5b600080fd5b7f4e487b7100000000000000000000000000000000000000000000000000000000600052604160045260246000fd5b610db682610c1b565b810181811067ffffffffffffffff82111715610dd557610dd4610d7e565b5b80604052505050565b6000610de8610b36565b9050610df48282610dad565b919050565b600067ffffffffffffffff821115610e1457610e13610d7e565b5b610e1d82610c1b565b9050602081019050919050565b82818337600083830152505050565b6000610e4c610e4784610df9565b610dde565b905082815260208101848484011115610e6857610e67610d79565b5b610e73848285610e2a565b509392505050565b600082601f830112610e9057610e8f610d74565b5b8135610ea0848260208601610e39565b91505092915050565b600060208284031215610ebf57610ebe610b40565b5b600082013567ffffffffffffffff811115610edd57610edc610b45565b5b610ee984828501610e7b565b91505092915050565b610efb81610c87565b82525050565b610f0a81610b6a565b82525050565b600060a0820190508181036000830152610f2a8188610c2c565b90508181036020830152610f3e8187610c2c565b9050610f4d6040830186610ef2565b610f5a6060830185610f01565b8181036080830152610f6c8184610c2c565b90509695505050505050565b60008060408385031215610f8f57610f8e610b40565b5b6000610f9d85828601610b93565b925050602083013567ffffffffffffffff811115610fbe57610fbd610b45565b5b610fca85828601610e7b565b9150509250929050565b600067ffffffffffffffff821115610fef57610fee610d7e565b5b610ff882610c1b565b9050602081019050919050565b600061101861101384610fd4565b610dde565b90508281526020810184848401111561103457611033610d79565b5b61103f848285610e2a565b509392505050565b600082601f83011261105c5761105b610d74565b5b813561106c848260208601611005565b91505092915050565b60008060008060008060c0878903121561109257611091610b40565b5b600087013567ffffffffffffffff8111156110b0576110af610b45565b5b6110bc89828a01610e7b565b965050602087013567ffffffffffffffff8111156110dd576110dc610b45565b5b6110e989828a01611047565b955050604087013567ffffffffffffffff81111561110a57611109610b45565b5b61111689828a01611047565b945050606061112789828a01610ca8565b935050608061113889828a01610b93565b92505060a087013567ffffffffffffffff81111561115957611158610b45565b5b61116589828a01611047565b9150509295509295509295565b6000806040838503121561118957611188610b40565b5b600061119785828601610b93565b925050602083013567ffffffffffffffff8111156111b8576111b7610b45565b5b6111c485828601611047565b9150509250929050565b600081519050919050565b600082825260208201905092915050565b6000819050602082019050919050565b600082825260208201905092915050565b600061121682610cfd565b61122081856111fa565b9350611230818560208601610bf1565b61123981610c1b565b840191505092915050565b6000611250838361120b565b905092915050565b6000602082019050919050565b6000611270826111ce565b61127a81856111d9565b93508360208202850161128c856111ea565b8060005b858110156112c857848403895281516112a98582611244565b94506112b483611258565b925060208a01995050600181019050611290565b50829750879550505050505092915050565b600060208201905081810360008301526112f48184611265565b905092915050565b7f4e487b7100000000000000000000000000000000000000000000000000000000600052602260045260246000fd5b6000600282049050600182168061134357607f821691505b602082108103611356576113556112fc565b5b50919050565b60008190508160005260206000209050919050565b60006020601f8301049050919050565b600082821b905092915050565b6000600883026113be7fffffffffffffffffffffffffffffffffffffffffffffffffffffffffffffffff82611381565b6113c88683611381565b95508019841693508086168417925050509392505050565b6000819050919050565b60006114056114006113fb84610c87565b6113e0565b610c87565b9050919050565b6000819050919050565b61141f836113ea565b61143361142b8261140c565b84845461138e565b825550505050565b600090565b61144861143b565b611453818484611416565b505050565b5b818110156114775761146c600082611440565b600181019050611459565b5050565b601f8211156114bc5761148d8161135c565b61149684611371565b810160208510156114a5578190505b6114b96114b185611371565b830182611458565b50505b505050565b600082821c905092915050565b60006114df600019846008026114c1565b1980831691505092915050565b60006114f883836114ce565b9150826002028217905092915050565b61151182610cfd565b67ffffffffffffffff81111561152a57611529610d7e565b5b611534825461132b565b61153f82828561147b565b600060209050601f8311600181146115725760008415611560578287015190505b61156a85826114ec565b8655506115d2565b601f1984166115808661135c565b60005b828110156115a857848901518255600182019150602085019450602081019050611583565b868310156115c557848901516115c1601f8916826114ce565b8355505b6001600288020188555050505b505050505050565b600081905092915050565b60006115f082610cfd565b6115fa81856115da565b935061160a818560208601610bf1565b80840191505092915050565b600061162282846115e5565b915081905092915050565b60008190508160005260206000209050919050565b601f821115611683576116548161162d565b61165d84611371565b8101602085101561166c578190505b61168061167885611371565b830182611458565b50505b505050565b61169182610bd5565b67ffffffffffffffff8111156116aa576116a9610d7e565b5b6116b4825461132b565b6116bf828285611642565b600060209050601f8311600181146116f257600084156116e0578287015190505b6116ea85826114ec565b865550611752565b601f1984166117008661162d565b60005b8281101561172857848901518255600182019150602085019450602081019050611703565b868310156117455784890151611741601f8916826114ce565b8355505b6001600288020188555050505b50505050505056fea2646970667358221220c597a82f55192df1b71cdd356b5c810a498b3acbfc3c64c24fb08fd11870b5ef64736f6c63430008110033",
  "immutableReferences": {},
  "source": "// SPDX-License-Identifier: MIT\npragma solidity >=0.4.22 <0.9.0;\n\ncontract eSign {\n  mapping(address => string) public ttd;\n  mapping(bytes => kumpulanData) public DataTtd;\n  mapping(address => bytes[]) public riwayat;\n\n  struct kumpulanData {\n    string perihal;\n    string CIDTtd;\n    uint timestamp;\n    address addr;\n    string CIDTtdQr;\n  }\n\n  function setDataTtd(bytes memory sign, string memory perihal, string memory cidTtd, uint timestamp, address addr, string memory cidTtdQr) public {\n    kumpulanData memory data = kumpulanData(perihal, cidTtd, timestamp, addr, cidTtdQr);\n    DataTtd[sign] = data;\n  }\n\n  function getDataTtd(bytes memory sign) public view returns (string memory, string memory, uint, address, string memory){\n    kumpulanData storage data = DataTtd[sign];\n    return (data.perihal, data.CIDTtd, data.timestamp, data.addr, data.CIDTtdQr);\n  }\n\n  function setRiwayat(address _addr, bytes memory sign) public {\n    riwayat[_addr].push(sign);\n  }\n\n  function getRiwayat(address _addr) public view returns (bytes[] memory){\n    return riwayat[_addr];\n  }\n\n  function setTtd(address _addr, string memory CID) public {\n    ttd[_addr] = CID;\n  }\n\n  function getTtd(address _addr) public view returns (string memory) {\n    return ttd[_addr];\n  }\n}\n",
  "sourcePath": "D:\\Blockchain\\Tugas Akhir\\contracts\\eSign.sol",
  "compiler": {
    "name": "solc",
    "version": "0.8.17+commit.8df45f5f.Emscripten.clang"
  },
  "schemaVersion": "3.4.10",
  "updatedAt": "2023-04-28T06:30:46.439Z",
  "networkType": "ethereum",
  "devdoc": {
    "kind": "dev",
    "methods": {},
    "version": 1
  },
  "userdoc": {
    "kind": "user",
    "methods": {},
    "version": 1
  }
}